:03000000020C3BB4
:0C0C3B00787FE4F6D8FD758120020B3EA6
:0A0C47005F449DD5C6D3DB45DFD71F
:100C2300E4FDFCC3ED9FEE6480F8EC64809850070C
:070C33000DBD00010C80EC77
:010C3A002297
:100B9B00E50C900C4793F4F580C2A17FC87E001240
:100BAB000C23D2A1E50B934420F4F580C2A37FC89C
:100BBB00120C23D2A3E50A93F4F580C2A57FC812C9
:100BCB000C23D2A5E50993F4F580C2A77FC8120CBC
:040BDB0023D2A72258
:060C5800758921C2A922EA
:070C510075B801E4F58822EB
:100ACC00E50BD3940040028065E50AD394004053B3
:100ADC00E50A14B409005059900AF275F003A4C544
:100AEC008325F0C58373020B2D020B29020B250203
:100AFC000B21020B1D020B19020B15020B11020B21
:100B0C000D750D0922750D0822750D0722750D0640
:100B1C0022750D0522750D0422750D0322750D022B
:100B2C00228007E509D394004004750D0122E4F5F9
:020B3C000D2288
:10080000E47FAAFEFDFCAB16AA15A914A8131209D1
:100810003C8F1C8E1B8D1A8C197B807A9679987868
:1008200000120BDF8F12E4FCFDFE7B807A96799834
:10083000F812093CA804A905AA06C3E51C9FF51CEB
:10084000E51B9AF51BE51A99F51AE51998F5197B38
:10085000407A42790F7800AF1CAE1BAD1AFC120B28
:10086000DF8F11E4FCFDFE7B407A42790FF812091C
:100870003CA804A905AA06C3E51C9FF51CE51B9A24
:10088000F51BE51A99F51AE51998F5197BA07A86F2
:1008900079017800AF1CAE1BAD1AFC120BDF8F1074
:1008A000E4FCFDFE7BA07A867901F812093CA804DD
:1008B000A905AA06C3E51C9FF51CE51B9AF51BE5D7
:1008C0001A99F51AE51998F519E47B107A27F9F8C1
:1008D000AF1CAE1BAD1AAC19120BDF8F0FE4FCFD81
:1008E000FE7B107A27F9F812093CA804A905AA068C
:1008F000C3E51C9FF51CE51B9AF51BE51A99F51A33
:10090000E51998F519E47BE87A03F9F8AF1CAE1BFA
:10091000AD1AAC19120BDF8F0EE512700CE51170D9
:1009200008E5107004E50F601285120C85110B8527
:0B093000100A850F09850E08120ACC82
:01093B002299
:03000300020A5995
:100A5900C0E0C0F0C083C082C0D075D000C000C063
:100A690001C002C003C004C005C006C007C28CC2D1
:100A7900A8AF8AE48F16F515F514F513AF8CFCFDB4
:100A8900FEFB7A01F9F812093CE5162FF516E51572
:100A99003EF515E5143DF514E5133CF51312080070
:100AA900D200758C00758A00D007D006D005D00415
:100AB900D003D002D001D000D0D0D082D083D0F0E2
:030AC900D0E03248
:03000B00020C5E86
:050C5E00C28CC2A932A6
:03001B00020C6371
:050C6300B290051732FC
:100B3E00120C58120C51D200E4F51775A880D2ABE6
:100B4E00D2A9C28EC28C758BF4758DF4C200E4F5F9
:100B5E0017C2A8758DF4758BF4F58AF58CC290D2F8
:100B6E008EC3E5176480949440F7C28ED28CD2A8BF
:100B7E00120B9B0518E50DD39400400DE518950D4D
:0D0B8E0040CAE4F518B2B780C3D2B780BFEB
:10093C00E88FF0A4CC8BF0A42CFCE98EF0A42CFC5A
:10094C008AF0EDA42CFCEA8EF0A4CDA8F08BF0A4D8
:10095C002DCC3825F0FDE98FF0A42CCD35F0FCEB37
:10096C008EF0A4FEA9F0EB8FF0A4CFC5F02ECD39FC
:0F097C00FEE43CFCEAA42DCE35F0FDE43CFC2269
:100BDF00C2D5E830E70FB2D5E4C39BFBE49AFAE441
:100BEF0099F9E498F8EC30E717B2D5120C15120901
:100BFF00C7E4C39BFBE49AFAE499F9E498F88003FD
:100C0F001209C730D50DE4C39FFFE49EFEE49DFD9E
:040C1F00E49CFC2233
:10098B0075F008758200EF2FFFEE33FECD33CDCC23
:10099B0033CCC58233C5829BED9AEC99E5829840A6
:1009AB000CF582EE9BFEED9AFDEC99FC0FD5F0D683
:1009BB00E4CEFBE4CDFAE4CCF9A88222B800C1B9AD
:1009CB000059BA002DEC8BF084CFCECDFCE5F0CBEB
:1009DB00F97818EF2FFFEE33FEED33FDEC33FCEB24
:1009EB0033FB10D703994004EB99FB0FD8E5E4F9DF
:1009FB00FA227818EF2FFFEE33FEED33FDEC33FCCC
:100A0B00C933C910D7059BE99A4007EC9BFCE99ABF
:100A1B00F90FD8E0E4C9FAE4CCFB2275F010EF2F04
:100A2B00FFEE33FEED33FDCC33CCC833C810D70704
:100A3B009BEC9AE899400AED9BFDEC9AFCE899F83F
:0E0A4B000FD5F0DAE4CDFBE4CCFAE4C8F922D2
:00000001FF
